{
  "contractName": "CarRentalPlatform",
  "abi": [
    {
      "inputs": [],
      "stateMutability": "nonpayable",
      "type": "constructor"
    },
    {
      "anonymous": false,
      "inputs": [
        {
          "indexed": true,
          "internalType": "address",
          "name": "walletAddress",
          "type": "address"
        },
        {
          "indexed": false,
          "internalType": "uint256",
          "name": "amount",
          "type": "uint256"
        }
      ],
      "name": "BalanceWithdrawn",
      "type": "event"
    },
    {
      "anonymous": false,
      "inputs": [
        {
          "indexed": true,
          "internalType": "uint256",
          "name": "id",
          "type": "uint256"
        },
        {
          "indexed": false,
          "internalType": "string",
          "name": "name",
          "type": "string"
        },
        {
          "indexed": false,
          "internalType": "string",
          "name": "imgUrl",
          "type": "string"
        },
        {
          "indexed": false,
          "internalType": "uint256",
          "name": "rentFee",
          "type": "uint256"
        },
        {
          "indexed": false,
          "internalType": "uint256",
          "name": "saleFee",
          "type": "uint256"
        }
      ],
      "name": "CarAdded",
      "type": "event"
    },
    {
      "anonymous": false,
      "inputs": [
        {
          "indexed": true,
          "internalType": "uint256",
          "name": "id",
          "type": "uint256"
        },
        {
          "indexed": false,
          "internalType": "string",
          "name": "name",
          "type": "string"
        },
        {
          "indexed": false,
          "internalType": "string",
          "name": "imgUrl",
          "type": "string"
        },
        {
          "indexed": false,
          "internalType": "uint256",
          "name": "rentFee",
          "type": "uint256"
        },
        {
          "indexed": false,
          "internalType": "uint256",
          "name": "saleFee",
          "type": "uint256"
        }
      ],
      "name": "CarMetadataEdited",
      "type": "event"
    },
    {
      "anonymous": false,
      "inputs": [
        {
          "indexed": true,
          "internalType": "uint256",
          "name": "id",
          "type": "uint256"
        },
        {
          "indexed": false,
          "internalType": "enum CarRentalPlatform.Status",
          "name": "status",
          "type": "uint8"
        }
      ],
      "name": "CarStatusEdited",
      "type": "event"
    },
    {
      "anonymous": false,
      "inputs": [
        {
          "indexed": true,
          "internalType": "address",
          "name": "walletAddress",
          "type": "address"
        },
        {
          "indexed": true,
          "internalType": "uint256",
          "name": "carId",
          "type": "uint256"
        }
      ],
      "name": "CheckIn",
      "type": "event"
    },
    {
      "anonymous": false,
      "inputs": [
        {
          "indexed": true,
          "internalType": "address",
          "name": "walletAddress",
          "type": "address"
        },
        {
          "indexed": true,
          "internalType": "uint256",
          "name": "carId",
          "type": "uint256"
        }
      ],
      "name": "CheckOut",
      "type": "event"
    },
    {
      "anonymous": false,
      "inputs": [
        {
          "indexed": true,
          "internalType": "address",
          "name": "walletAddress",
          "type": "address"
        },
        {
          "indexed": false,
          "internalType": "uint256",
          "name": "amount",
          "type": "uint256"
        }
      ],
      "name": "Deposit",
      "type": "event"
    },
    {
      "anonymous": false,
      "inputs": [
        {
          "indexed": true,
          "internalType": "address",
          "name": "walletAddress",
          "type": "address"
        },
        {
          "indexed": false,
          "internalType": "uint256",
          "name": "amount",
          "type": "uint256"
        }
      ],
      "name": "PaymentMade",
      "type": "event"
    },
    {
      "anonymous": false,
      "inputs": [
        {
          "indexed": true,
          "internalType": "address",
          "name": "walletAddress",
          "type": "address"
        },
        {
          "indexed": false,
          "internalType": "string",
          "name": "name",
          "type": "string"
        },
        {
          "indexed": false,
          "internalType": "string",
          "name": "lastname",
          "type": "string"
        }
      ],
      "name": "UserAdded",
      "type": "event"
    },
    {
      "inputs": [
        {
          "internalType": "address",
          "name": "_newOwner",
          "type": "address"
        }
      ],
      "name": "setOwner",
      "outputs": [],
      "stateMutability": "nonpayable",
      "type": "function"
    },
    {
      "inputs": [
        {
          "internalType": "string",
          "name": "name",
          "type": "string"
        },
        {
          "internalType": "string",
          "name": "lastname",
          "type": "string"
        }
      ],
      "name": "addUser",
      "outputs": [],
      "stateMutability": "nonpayable",
      "type": "function"
    },
    {
      "inputs": [
        {
          "internalType": "string",
          "name": "name",
          "type": "string"
        },
        {
          "internalType": "string",
          "name": "url",
          "type": "string"
        },
        {
          "internalType": "uint256",
          "name": "rent",
          "type": "uint256"
        },
        {
          "internalType": "uint256",
          "name": "sale",
          "type": "uint256"
        }
      ],
      "name": "addCar",
      "outputs": [],
      "stateMutability": "nonpayable",
      "type": "function"
    },
    {
      "inputs": [
        {
          "internalType": "uint256",
          "name": "id",
          "type": "uint256"
        },
        {
          "internalType": "string",
          "name": "name",
          "type": "string"
        },
        {
          "internalType": "string",
          "name": "imgUrl",
          "type": "string"
        },
        {
          "internalType": "uint256",
          "name": "rentFee",
          "type": "uint256"
        },
        {
          "internalType": "uint256",
          "name": "saleFee",
          "type": "uint256"
        }
      ],
      "name": "editCarMetadata",
      "outputs": [],
      "stateMutability": "nonpayable",
      "type": "function"
    },
    {
      "inputs": [
        {
          "internalType": "uint256",
          "name": "id",
          "type": "uint256"
        },
        {
          "internalType": "enum CarRentalPlatform.Status",
          "name": "status",
          "type": "uint8"
        }
      ],
      "name": "editCarStatus",
      "outputs": [],
      "stateMutability": "nonpayable",
      "type": "function"
    },
    {
      "inputs": [
        {
          "internalType": "uint256",
          "name": "id",
          "type": "uint256"
        }
      ],
      "name": "checkOut",
      "outputs": [],
      "stateMutability": "nonpayable",
      "type": "function"
    },
    {
      "inputs": [],
      "name": "checkIn",
      "outputs": [],
      "stateMutability": "nonpayable",
      "type": "function"
    },
    {
      "inputs": [],
      "name": "deposit",
      "outputs": [],
      "stateMutability": "payable",
      "type": "function",
      "payable": true
    },
    {
      "inputs": [],
      "name": "makePayment",
      "outputs": [],
      "stateMutability": "nonpayable",
      "type": "function"
    },
    {
      "inputs": [
        {
          "internalType": "uint256",
          "name": "amount",
          "type": "uint256"
        }
      ],
      "name": "withdrawBalance",
      "outputs": [],
      "stateMutability": "nonpayable",
      "type": "function"
    },
    {
      "inputs": [
        {
          "internalType": "uint256",
          "name": "amount",
          "type": "uint256"
        }
      ],
      "name": "withdrawOwnerBalance",
      "outputs": [],
      "stateMutability": "nonpayable",
      "type": "function"
    },
    {
      "inputs": [],
      "name": "getOwner",
      "outputs": [
        {
          "internalType": "address",
          "name": "",
          "type": "address"
        }
      ],
      "stateMutability": "view",
      "type": "function",
      "constant": true
    },
    {
      "inputs": [
        {
          "internalType": "address",
          "name": "walletAddress",
          "type": "address"
        }
      ],
      "name": "getUser",
      "outputs": [
        {
          "components": [
            {
              "internalType": "address",
              "name": "walletAddress",
              "type": "address"
            },
            {
              "internalType": "string",
              "name": "name",
              "type": "string"
            },
            {
              "internalType": "string",
              "name": "lastname",
              "type": "string"
            },
            {
              "internalType": "uint256",
              "name": "rentedCarId",
              "type": "uint256"
            },
            {
              "internalType": "uint256",
              "name": "balance",
              "type": "uint256"
            },
            {
              "internalType": "uint256",
              "name": "debt",
              "type": "uint256"
            },
            {
              "internalType": "uint256",
              "name": "start",
              "type": "uint256"
            }
          ],
          "internalType": "struct CarRentalPlatform.User",
          "name": "",
          "type": "tuple"
        }
      ],
      "stateMutability": "view",
      "type": "function",
      "constant": true
    },
    {
      "inputs": [
        {
          "internalType": "uint256",
          "name": "id",
          "type": "uint256"
        }
      ],
      "name": "getCar",
      "outputs": [
        {
          "components": [
            {
              "internalType": "uint256",
              "name": "id",
              "type": "uint256"
            },
            {
              "internalType": "string",
              "name": "name",
              "type": "string"
            },
            {
              "internalType": "string",
              "name": "imgUrl",
              "type": "string"
            },
            {
              "internalType": "enum CarRentalPlatform.Status",
              "name": "status",
              "type": "uint8"
            },
            {
              "internalType": "uint256",
              "name": "rentFee",
              "type": "uint256"
            },
            {
              "internalType": "uint256",
              "name": "saleFee",
              "type": "uint256"
            }
          ],
          "internalType": "struct CarRentalPlatform.Car",
          "name": "",
          "type": "tuple"
        }
      ],
      "stateMutability": "view",
      "type": "function",
      "constant": true
    },
    {
      "inputs": [
        {
          "internalType": "enum CarRentalPlatform.Status",
          "name": "_status",
          "type": "uint8"
        }
      ],
      "name": "getCarsByStatus",
      "outputs": [
        {
          "components": [
            {
              "internalType": "uint256",
              "name": "id",
              "type": "uint256"
            },
            {
              "internalType": "string",
              "name": "name",
              "type": "string"
            },
            {
              "internalType": "string",
              "name": "imgUrl",
              "type": "string"
            },
            {
              "internalType": "enum CarRentalPlatform.Status",
              "name": "status",
              "type": "uint8"
            },
            {
              "internalType": "uint256",
              "name": "rentFee",
              "type": "uint256"
            },
            {
              "internalType": "uint256",
              "name": "saleFee",
              "type": "uint256"
            }
          ],
          "internalType": "struct CarRentalPlatform.Car[]",
          "name": "",
          "type": "tuple[]"
        }
      ],
      "stateMutability": "view",
      "type": "function",
      "constant": true
    },
    {
      "inputs": [],
      "name": "getCurrentCount",
      "outputs": [
        {
          "internalType": "uint256",
          "name": "",
          "type": "uint256"
        }
      ],
      "stateMutability": "view",
      "type": "function",
      "constant": true
    },
    {
      "inputs": [],
      "name": "getContractBalance",
      "outputs": [
        {
          "internalType": "uint256",
          "name": "",
          "type": "uint256"
        }
      ],
      "stateMutability": "view",
      "type": "function",
      "constant": true
    },
    {
      "inputs": [],
      "name": "getTotalPayments",
      "outputs": [
        {
          "internalType": "uint256",
          "name": "",
          "type": "uint256"
        }
      ],
      "stateMutability": "view",
      "type": "function",
      "constant": true
    }
  ],
  "bytecode": "0x608060405234801561001057600080fd5b50600160008190555033600260006101000a81548173ffffffffffffffffffffffffffffffffffffffff021916908373ffffffffffffffffffffffffffffffffffffffff1602179055506000600381905550613a44806100716000396000f3fe6080604052600436106101095760003560e01c8063708f29a611610095578063d0e30db011610064578063d0e30db014610353578063d8546f491461035d578063d8d7970014610386578063da76d5cd1461039d578063dd51babf146103c657610109565b8063708f29a614610297578063893d20e8146102c25780639a43da73146102ed578063ba38ccf61461031657610109565b80633c69c657116100dc5780633c69c657146101a05780634865bed2146101c95780635e8be190146101f25780636f77926b1461022f5780636f9fb98a1461026c57610109565b8063079eaf341461010e57806313af403514610137578063183ff085146101605780631bd2eeee14610177575b600080fd5b34801561011a57600080fd5b506101356004803603810190610130919061272a565b6103f1565b005b34801561014357600080fd5b5061015e600480360381019061015991906126d0565b6106d2565b005b34801561016c57600080fd5b506101756107a6565b005b34801561018357600080fd5b5061019e60048036038101906101999190612852565b610a60565b005b3480156101ac57600080fd5b506101c760048036038101906101c29190612852565b610d4f565b005b3480156101d557600080fd5b506101f060048036038101906101eb91906127ab565b610f06565b005b3480156101fe57600080fd5b5061021960048036038101906102149190612852565b6111b0565b6040516102269190613267565b60405180910390f35b34801561023b57600080fd5b50610256600480360381019061025191906126d0565b6113b4565b6040516102639190613289565b60405180910390f35b34801561027857600080fd5b506102816115f7565b60405161028e91906132ab565b60405180910390f35b3480156102a357600080fd5b506102ac61168f565b6040516102b991906132ab565b60405180910390f35b3480156102ce57600080fd5b506102d7611729565b6040516102e49190612f65565b60405180910390f35b3480156102f957600080fd5b50610314600480360381019061030f919061287f565b611753565b005b34801561032257600080fd5b5061033d600480360381019061033891906126fd565b6118b7565b60405161034a9190612f80565b60405180910390f35b61035b611be8565b005b34801561036957600080fd5b50610384600480360381019061037f91906128bf565b611cd9565b005b34801561039257600080fd5b5061039b611e96565b005b3480156103a957600080fd5b506103c460048036038101906103bf9190612852565b6120f5565b005b3480156103d257600080fd5b506103db612326565b6040516103e891906132ab565b60405180910390f35b6103fa33612337565b1561043a576040517f08c379a000000000000000000000000000000000000000000000000000000000815260040161043190613187565b60405180910390fd5b6040518060e001604052803373ffffffffffffffffffffffffffffffffffffffff16815260200185858080601f016020809104026020016040519081016040528093929190818152602001838380828437600081840152601f19601f82011690508083019250505050505050815260200183838080601f016020809104026020016040519081016040528093929190818152602001838380828437600081840152601f19601f8201169050808301925050505050505081526020016000815260200160008152602001600081526020016000815250600460003373ffffffffffffffffffffffffffffffffffffffff1673ffffffffffffffffffffffffffffffffffffffff16815260200190815260200160002060008201518160000160006101000a81548173ffffffffffffffffffffffffffffffffffffffff021916908373ffffffffffffffffffffffffffffffffffffffff16021790555060208201518160010190805190602001906105b1929190612477565b5060408201518160020190805190602001906105ce929190612477565b50606082015181600301556080820151816004015560a0820151816005015560c082015181600601559050503373ffffffffffffffffffffffffffffffffffffffff167f8eab1db142a914aff8b515eedb9177bd7effaef6d714c41e30bdf15206778607600460003373ffffffffffffffffffffffffffffffffffffffff1673ffffffffffffffffffffffffffffffffffffffff168152602001908152602001600020600101600460003373ffffffffffffffffffffffffffffffffffffffff1673ffffffffffffffffffffffffffffffffffffffff1681526020019081526020016000206002016040516106c4929190612fbd565b60405180910390a250505050565b600260009054906101000a900473ffffffffffffffffffffffffffffffffffffffff1673ffffffffffffffffffffffffffffffffffffffff163373ffffffffffffffffffffffffffffffffffffffff1614610762576040517f08c379a000000000000000000000000000000000000000000000000000000000815260040161075990613047565b60405180910390fd5b80600260006101000a81548173ffffffffffffffffffffffffffffffffffffffff021916908373ffffffffffffffffffffffffffffffffffffffff16021790555050565b6107af33612337565b6107ee576040517f08c379a00000000000000000000000000000000000000000000000000000000081526004016107e5906131e7565b60405180910390fd5b6000600460003373ffffffffffffffffffffffffffffffffffffffff1673ffffffffffffffffffffffffffffffffffffffff1681526020019081526020016000206003015490506000811415610879576040517f08c379a000000000000000000000000000000000000000000000000000000000815260040161087090613247565b60405180910390fd5b6000600460003373ffffffffffffffffffffffffffffffffffffffff1673ffffffffffffffffffffffffffffffffffffffff16815260200190815260200160002060060154426108c9919061342d565b90506000600560008481526020019081526020016000206004015490506108f082826123d2565b600460003373ffffffffffffffffffffffffffffffffffffffff1673ffffffffffffffffffffffffffffffffffffffff1681526020019081526020016000206005016000828254610941919061334c565b925050819055506000600460003373ffffffffffffffffffffffffffffffffffffffff1673ffffffffffffffffffffffffffffffffffffffff168152602001908152602001600020600301819055506000600460003373ffffffffffffffffffffffffffffffffffffffff1673ffffffffffffffffffffffffffffffffffffffff1681526020019081526020016000206006018190555060026005600085815260200190815260200160002060030160006101000a81548160ff02191690836002811115610a1257610a116135ce565b5b0217905550823373ffffffffffffffffffffffffffffffffffffffff167fa864a8b988e604bb05d6ce75d53efabb5620c45b15380b7bd0c51dcfa71dda0360405160405180910390a3505050565b610a6933612337565b610aa8576040517f08c379a0000000000000000000000000000000000000000000000000000000008152600401610a9f906131e7565b60405180910390fd5b600280811115610abb57610aba6135ce565b5b6005600083815260200190815260200160002060030160009054906101000a900460ff166002811115610af157610af06135ce565b5b14610b31576040517f08c379a0000000000000000000000000000000000000000000000000000000008152600401610b2890613107565b60405180910390fd5b6000600460003373ffffffffffffffffffffffffffffffffffffffff1673ffffffffffffffffffffffffffffffffffffffff1681526020019081526020016000206003015414610bb6576040517f08c379a0000000000000000000000000000000000000000000000000000000008152600401610bad90613147565b60405180910390fd5b6000600460003373ffffffffffffffffffffffffffffffffffffffff1673ffffffffffffffffffffffffffffffffffffffff1681526020019081526020016000206005015414610c3b576040517f08c379a0000000000000000000000000000000000000000000000000000000008152600401610c32906130c7565b60405180910390fd5b42600460003373ffffffffffffffffffffffffffffffffffffffff1673ffffffffffffffffffffffffffffffffffffffff1681526020019081526020016000206006018190555080600460003373ffffffffffffffffffffffffffffffffffffffff1673ffffffffffffffffffffffffffffffffffffffff1681526020019081526020016000206003018190555060016005600083815260200190815260200160002060030160006101000a81548160ff02191690836002811115610d0357610d026135ce565b5b0217905550803373ffffffffffffffffffffffffffffffffffffffff167ff65ce03794824579bcd95d8c6743ffc10c4a5e7405fb3876c1abf81453105c4260405160405180910390a350565b600260009054906101000a900473ffffffffffffffffffffffffffffffffffffffff1673ffffffffffffffffffffffffffffffffffffffff163373ffffffffffffffffffffffffffffffffffffffff1614610ddf576040517f08c379a0000000000000000000000000000000000000000000000000000000008152600401610dd690613047565b60405180910390fd5b806003541015610e24576040517f08c379a0000000000000000000000000000000000000000000000000000000008152600401610e1b906131a7565b60405180910390fd5b6000600260009054906101000a900473ffffffffffffffffffffffffffffffffffffffff1673ffffffffffffffffffffffffffffffffffffffff1682604051610e6c90612f50565b60006040518083038185875af1925050503d8060008114610ea9576040519150601f19603f3d011682016040523d82523d6000602084013e610eae565b606091505b5050905080610ef2576040517f08c379a0000000000000000000000000000000000000000000000000000000008152600401610ee9906130a7565b60405180910390fd5b816003600082825403925050819055505050565b600260009054906101000a900473ffffffffffffffffffffffffffffffffffffffff1673ffffffffffffffffffffffffffffffffffffffff163373ffffffffffffffffffffffffffffffffffffffff1614610f96576040517f08c379a0000000000000000000000000000000000000000000000000000000008152600401610f8d90613047565b60405180910390fd5b610fa060016123f9565b6000610fac600161240f565b90506040518060c0016040528082815260200188888080601f016020809104026020016040519081016040528093929190818152602001838380828437600081840152601f19601f82011690508083019250505050505050815260200186868080601f016020809104026020016040519081016040528093929190818152602001838380828437600081840152601f19601f820116905080830192505050505050508152602001600280811115611066576110656135ce565b5b815260200184815260200183815250600560008381526020019081526020016000206000820151816000015560208201518160010190805190602001906110ae929190612477565b5060408201518160020190805190602001906110cb929190612477565b5060608201518160030160006101000a81548160ff021916908360028111156110f7576110f66135ce565b5b02179055506080820151816004015560a08201518160050155905050807f1d26cfb076fd58c1fa5695bb34e5556995a0aa34ecc601438f9957d6a71439a360056000848152602001908152602001600020600101600560008581526020019081526020016000206002016005600086815260200190815260200160002060040154600560008781526020019081526020016000206005015460405161119f9493929190612ff4565b60405180910390a250505050505050565b6111b86124fd565b600060056000848152602001908152602001600020600001541415611212576040517f08c379a000000000000000000000000000000000000000000000000000000000815260040161120990613067565b60405180910390fd5b600560008381526020019081526020016000206040518060c00160405290816000820154815260200160018201805461124a906134f5565b80601f0160208091040260200160405190810160405280929190818152602001828054611276906134f5565b80156112c35780601f10611298576101008083540402835291602001916112c3565b820191906000526020600020905b8154815290600101906020018083116112a657829003601f168201915b505050505081526020016002820180546112dc906134f5565b80601f0160208091040260200160405190810160405280929190818152602001828054611308906134f5565b80156113555780601f1061132a57610100808354040283529160200191611355565b820191906000526020600020905b81548152906001019060200180831161133857829003601f168201915b505050505081526020016003820160009054906101000a900460ff166002811115611383576113826135ce565b5b6002811115611395576113946135ce565b5b8152602001600482015481526020016005820154815250509050919050565b6113bc612545565b6113c582612337565b611404576040517f08c379a00000000000000000000000000000000000000000000000000000000081526004016113fb90613207565b60405180910390fd5b600460008373ffffffffffffffffffffffffffffffffffffffff1673ffffffffffffffffffffffffffffffffffffffff1681526020019081526020016000206040518060e00160405290816000820160009054906101000a900473ffffffffffffffffffffffffffffffffffffffff1673ffffffffffffffffffffffffffffffffffffffff1673ffffffffffffffffffffffffffffffffffffffff1681526020016001820180546114b4906134f5565b80601f01602080910402602001604051908101604052809291908181526020018280546114e0906134f5565b801561152d5780601f106115025761010080835404028352916020019161152d565b820191906000526020600020905b81548152906001019060200180831161151057829003601f168201915b50505050508152602001600282018054611546906134f5565b80601f0160208091040260200160405190810160405280929190818152602001828054611572906134f5565b80156115bf5780601f10611594576101008083540402835291602001916115bf565b820191906000526020600020905b8154815290600101906020018083116115a257829003601f168201915b505050505081526020016003820154815260200160048201548152602001600582015481526020016006820154815250509050919050565b6000600260009054906101000a900473ffffffffffffffffffffffffffffffffffffffff1673ffffffffffffffffffffffffffffffffffffffff163373ffffffffffffffffffffffffffffffffffffffff1614611689576040517f08c379a000000000000000000000000000000000000000000000000000000000815260040161168090613047565b60405180910390fd5b47905090565b6000600260009054906101000a900473ffffffffffffffffffffffffffffffffffffffff1673ffffffffffffffffffffffffffffffffffffffff163373ffffffffffffffffffffffffffffffffffffffff1614611721576040517f08c379a000000000000000000000000000000000000000000000000000000000815260040161171890613047565b60405180910390fd5b600354905090565b6000600260009054906101000a900473ffffffffffffffffffffffffffffffffffffffff16905090565b600260009054906101000a900473ffffffffffffffffffffffffffffffffffffffff1673ffffffffffffffffffffffffffffffffffffffff163373ffffffffffffffffffffffffffffffffffffffff16146117e3576040517f08c379a00000000000000000000000000000000000000000000000000000000081526004016117da90613047565b60405180910390fd5b60006005600084815260200190815260200160002060000154141561183d576040517f08c379a000000000000000000000000000000000000000000000000000000000815260040161183490613087565b60405180910390fd5b806005600084815260200190815260200160002060030160006101000a81548160ff02191690836002811115611876576118756135ce565b5b0217905550817fa2038badc9c4004a10f632052c54b0011bb307c2cadc65f22071f61ffd106633826040516118ab9190612fa2565b60405180910390a25050565b60606000806118c6600161240f565b90506000600190505b818111611947578460028111156118e9576118e86135ce565b5b6005600083815260200190815260200160002060030160009054906101000a900460ff16600281111561191f5761191e6135ce565b5b141561193457828061193090613527565b9350505b808061193f90613527565b9150506118cf565b5060008267ffffffffffffffff8111156119645761196361365b565b5b60405190808252806020026020018201604052801561199d57816020015b61198a6124fd565b8152602001906001900390816119825790505b509050600092506000600190505b828111611bdc578560028111156119c5576119c46135ce565b5b6005600083815260200190815260200160002060030160009054906101000a900460ff1660028111156119fb576119fa6135ce565b5b1415611bc957600560008281526020019081526020016000206040518060c001604052908160008201548152602001600182018054611a39906134f5565b80601f0160208091040260200160405190810160405280929190818152602001828054611a65906134f5565b8015611ab25780601f10611a8757610100808354040283529160200191611ab2565b820191906000526020600020905b815481529060010190602001808311611a9557829003601f168201915b50505050508152602001600282018054611acb906134f5565b80601f0160208091040260200160405190810160405280929190818152602001828054611af7906134f5565b8015611b445780601f10611b1957610100808354040283529160200191611b44565b820191906000526020600020905b815481529060010190602001808311611b2757829003601f168201915b505050505081526020016003820160009054906101000a900460ff166002811115611b7257611b716135ce565b5b6002811115611b8457611b836135ce565b5b815260200160048201548152602001600582015481525050828581518110611baf57611bae61362c565b5b60200260200101819052508380611bc590613527565b9450505b8080611bd490613527565b9150506119ab565b50809350505050919050565b611bf133612337565b611c30576040517f08c379a0000000000000000000000000000000000000000000000000000000008152600401611c2790613207565b60405180910390fd5b34600460003373ffffffffffffffffffffffffffffffffffffffff1673ffffffffffffffffffffffffffffffffffffffff1681526020019081526020016000206004016000828254611c82919061334c565b925050819055503373ffffffffffffffffffffffffffffffffffffffff167fe1fffcc4923d04b559f4d29a8bfc6cda04eb5b0d3c460751c2402c5c5cc9109c34604051611ccf91906132ab565b60405180910390a2565b600260009054906101000a900473ffffffffffffffffffffffffffffffffffffffff1673ffffffffffffffffffffffffffffffffffffffff163373ffffffffffffffffffffffffffffffffffffffff1614611d69576040517f08c379a0000000000000000000000000000000000000000000000000000000008152600401611d6090613047565b60405180910390fd5b600060056000898152602001908152602001600020600001541415611dc3576040517f08c379a0000000000000000000000000000000000000000000000000000000008152600401611dba906130e7565b60405180910390fd5b600060056000898152602001908152602001600020905060008787905014611dfa578686826001019190611df8929190612598565b505b60008585905014611e1a578484826002019190611e18929190612598565b505b6000831115611e2d578281600401819055505b6000821115611e40578181600501819055505b877f10e3e3a462a9f4c167783d47719e646c87b1a773b083fb5eef04a076e887079c826001018360020184600401548560050154604051611e849493929190612ff4565b60405180910390a25050505050505050565b611e9f33612337565b611ede576040517f08c379a0000000000000000000000000000000000000000000000000000000008152600401611ed590613207565b60405180910390fd5b6000600460003373ffffffffffffffffffffffffffffffffffffffff1673ffffffffffffffffffffffffffffffffffffffff1681526020019081526020016000206005015490506000600460003373ffffffffffffffffffffffffffffffffffffffff1673ffffffffffffffffffffffffffffffffffffffff16815260200190815260200160002060040154905060008211611faf576040517f08c379a0000000000000000000000000000000000000000000000000000000008152600401611fa690613127565b60405180910390fd5b81811015611ff2576040517f08c379a0000000000000000000000000000000000000000000000000000000008152600401611fe9906131c7565b60405180910390fd5b81600460003373ffffffffffffffffffffffffffffffffffffffff1673ffffffffffffffffffffffffffffffffffffffff168152602001908152602001600020600401600082825403925050819055508160036000828254612054919061334c565b925050819055506000600460003373ffffffffffffffffffffffffffffffffffffffff1673ffffffffffffffffffffffffffffffffffffffff168152602001908152602001600020600501819055503373ffffffffffffffffffffffffffffffffffffffff167f3a2d0e41c506b136330c6e5e0295ccbf0966daece99bfe7c89020cc01dbfb8d6836040516120e991906132ab565b60405180910390a25050565b6120fd61241d565b61210633612337565b612145576040517f08c379a000000000000000000000000000000000000000000000000000000000815260040161213c90613207565b60405180910390fd5b6000600460003373ffffffffffffffffffffffffffffffffffffffff1673ffffffffffffffffffffffffffffffffffffffff168152602001908152602001600020600401549050818110156121cf576040517f08c379a00000000000000000000000000000000000000000000000000000000081526004016121c690613167565b60405180910390fd5b81600460003373ffffffffffffffffffffffffffffffffffffffff1673ffffffffffffffffffffffffffffffffffffffff1681526020019081526020016000206004016000828254039250508190555060003373ffffffffffffffffffffffffffffffffffffffff168360405161224590612f50565b60006040518083038185875af1925050503d8060008114612282576040519150601f19603f3d011682016040523d82523d6000602084013e612287565b606091505b50509050806122cb576040517f08c379a00000000000000000000000000000000000000000000000000000000081526004016122c2906130a7565b60405180910390fd5b3373ffffffffffffffffffffffffffffffffffffffff167fddc398b321237a8d40ac914388309c2f52a08c134e4dc4ce61e32f57cb7d80f18460405161231191906132ab565b60405180910390a2505061232361246d565b50565b6000612332600161240f565b905090565b60008073ffffffffffffffffffffffffffffffffffffffff16600460008473ffffffffffffffffffffffffffffffffffffffff1673ffffffffffffffffffffffffffffffffffffffff16815260200190815260200160002060000160009054906101000a900473ffffffffffffffffffffffffffffffffffffffff1673ffffffffffffffffffffffffffffffffffffffff1614159050919050565b600080603c846123e291906133a2565b905082816123f091906133d3565b91505092915050565b6001816000016000828254019250508190555050565b600081600001549050919050565b60026000541415612463576040517f08c379a000000000000000000000000000000000000000000000000000000000815260040161245a90613227565b60405180910390fd5b6002600081905550565b6001600081905550565b828054612483906134f5565b90600052602060002090601f0160209004810192826124a557600085556124ec565b82601f106124be57805160ff19168380011785556124ec565b828001600101855582156124ec579182015b828111156124eb5782518255916020019190600101906124d0565b5b5090506124f9919061261e565b5090565b6040518060c0016040528060008152602001606081526020016060815260200160006002811115612531576125306135ce565b5b815260200160008152602001600081525090565b6040518060e00160405280600073ffffffffffffffffffffffffffffffffffffffff1681526020016060815260200160608152602001600081526020016000815260200160008152602001600081525090565b8280546125a4906134f5565b90600052602060002090601f0160209004810192826125c6576000855561260d565b82601f106125df57803560ff191683800117855561260d565b8280016001018555821561260d579182015b8281111561260c5782358255916020019190600101906125f1565b5b50905061261a919061261e565b5090565b5b8082111561263757600081600090555060010161261f565b5090565b60008135905061264a816139d0565b92915050565b60008135905061265f816139e7565b92915050565b60008083601f84011261267b5761267a61368f565b5b8235905067ffffffffffffffff8111156126985761269761368a565b5b6020830191508360018202830111156126b4576126b3613694565b5b9250929050565b6000813590506126ca816139f7565b92915050565b6000602082840312156126e6576126e561369e565b5b60006126f48482850161263b565b91505092915050565b6000602082840312156127135761271261369e565b5b600061272184828501612650565b91505092915050565b600080600080604085870312156127445761274361369e565b5b600085013567ffffffffffffffff81111561276257612761613699565b5b61276e87828801612665565b9450945050602085013567ffffffffffffffff81111561279157612790613699565b5b61279d87828801612665565b925092505092959194509250565b600080600080600080608087890312156127c8576127c761369e565b5b600087013567ffffffffffffffff8111156127e6576127e5613699565b5b6127f289828a01612665565b9650965050602087013567ffffffffffffffff81111561281557612814613699565b5b61282189828a01612665565b9450945050604061283489828a016126bb565b925050606061284589828a016126bb565b9150509295509295509295565b6000602082840312156128685761286761369e565b5b6000612876848285016126bb565b91505092915050565b600080604083850312156128965761289561369e565b5b60006128a4858286016126bb565b92505060206128b585828601612650565b9150509250929050565b600080600080600080600060a0888a0312156128de576128dd61369e565b5b60006128ec8a828b016126bb565b975050602088013567ffffffffffffffff81111561290d5761290c613699565b5b6129198a828b01612665565b9650965050604088013567ffffffffffffffff81111561293c5761293b613699565b5b6129488a828b01612665565b9450945050606061295b8a828b016126bb565b925050608061296c8a828b016126bb565b91505092959891949750929550565b60006129878383612d6f565b905092915050565b61299881613461565b82525050565b6129a781613461565b82525050565b60006129b8826132eb565b6129c2818561330e565b9350836020820285016129d4856132c6565b8060005b85811015612a1057848403895281516129f1858261297b565b94506129fc83613301565b925060208a019950506001810190506129d8565b50829750879550505050505092915050565b612a2b816134b0565b82525050565b612a3a816134b0565b82525050565b6000612a4b826132f6565b612a55818561332a565b9350612a658185602086016134c2565b612a6e816136a3565b840191505092915050565b60008154612a86816134f5565b612a90818661333b565b94506001821660008114612aab5760018114612abd57612af0565b60ff1983168652602086019350612af0565b612ac6856132d6565b60005b83811015612ae857815481890152600182019150602081019050612ac9565b808801955050505b50505092915050565b6000612b0660258361333b565b9150612b11826136b4565b604082019050919050565b6000612b2960128361333b565b9150612b3482613703565b602082019050919050565b6000612b4c60208361333b565b9150612b578261372c565b602082019050919050565b6000612b6f600f8361333b565b9150612b7a82613755565b602082019050919050565b6000612b92601d8361333b565b9150612b9d8261377e565b602082019050919050565b6000612bb560208361333b565b9150612bc0826137a7565b602082019050919050565b6000612bd8601c8361333b565b9150612be3826137d0565b602082019050919050565b6000612bfb60178361333b565b9150612c06826137f9565b602082019050919050565b6000612c1e601d8361333b565b9150612c2982613822565b602082019050919050565b6000612c4160208361333b565b9150612c4c8261384b565b602082019050919050565b6000612c6460138361333b565b9150612c6f82613874565b602082019050919050565b6000612c8760298361333b565b9150612c928261389d565b604082019050919050565b6000612caa601d8361333b565b9150612cb5826138ec565b602082019050919050565b6000612ccd60148361333b565b9150612cd882613915565b602082019050919050565b6000612cf060138361333b565b9150612cfb8261393e565b602082019050919050565b6000612d1360008361331f565b9150612d1e82613967565b600082019050919050565b6000612d36601f8361333b565b9150612d418261396a565b602082019050919050565b6000612d5960198361333b565b9150612d6482613993565b602082019050919050565b600060c083016000830151612d876000860182612f32565b5060208301518482036020860152612d9f8282612a40565b91505060408301518482036040860152612db98282612a40565b9150506060830151612dce6060860182612a22565b506080830151612de16080860182612f32565b5060a0830151612df460a0860182612f32565b508091505092915050565b600060c083016000830151612e176000860182612f32565b5060208301518482036020860152612e2f8282612a40565b91505060408301518482036040860152612e498282612a40565b9150506060830151612e5e6060860182612a22565b506080830151612e716080860182612f32565b5060a0830151612e8460a0860182612f32565b508091505092915050565b600060e083016000830151612ea7600086018261298f565b5060208301518482036020860152612ebf8282612a40565b91505060408301518482036040860152612ed98282612a40565b9150506060830151612eee6060860182612f32565b506080830151612f016080860182612f32565b5060a0830151612f1460a0860182612f32565b5060c0830151612f2760c0860182612f32565b508091505092915050565b612f3b816134a6565b82525050565b612f4a816134a6565b82525050565b6000612f5b82612d06565b9150819050919050565b6000602082019050612f7a600083018461299e565b92915050565b60006020820190508181036000830152612f9a81846129ad565b905092915050565b6000602082019050612fb76000830184612a31565b92915050565b60006040820190508181036000830152612fd78185612a79565b90508181036020830152612feb8184612a79565b90509392505050565b6000608082019050818103600083015261300e8187612a79565b905081810360208301526130228186612a79565b90506130316040830185612f41565b61303e6060830184612f41565b95945050505050565b6000602082019050818103600083015261306081612af9565b9050919050565b6000602082019050818103600083015261308081612b1c565b9050919050565b600060208201905081810360008301526130a081612b3f565b9050919050565b600060208201905081810360008301526130c081612b62565b9050919050565b600060208201905081810360008301526130e081612b85565b9050919050565b6000602082019050818103600083015261310081612ba8565b9050919050565b6000602082019050818103600083015261312081612bcb565b9050919050565b6000602082019050818103600083015261314081612bee565b9050919050565b6000602082019050818103600083015261316081612c11565b9050919050565b6000602082019050818103600083015261318081612c34565b9050919050565b600060208201905081810360008301526131a081612c57565b9050919050565b600060208201905081810360008301526131c081612c7a565b9050919050565b600060208201905081810360008301526131e081612c9d565b9050919050565b6000602082019050818103600083015261320081612cc0565b9050919050565b6000602082019050818103600083015261322081612ce3565b9050919050565b6000602082019050818103600083015261324081612d29565b9050919050565b6000602082019050818103600083015261326081612d4c565b9050919050565b600060208201905081810360008301526132818184612dff565b905092915050565b600060208201905081810360008301526132a38184612e8f565b905092915050565b60006020820190506132c06000830184612f41565b92915050565b6000819050602082019050919050565b60008190508160005260206000209050919050565b600081519050919050565b600081519050919050565b6000602082019050919050565b600082825260208201905092915050565b600081905092915050565b600082825260208201905092915050565b600082825260208201905092915050565b6000613357826134a6565b9150613362836134a6565b9250827fffffffffffffffffffffffffffffffffffffffffffffffffffffffffffffffff0382111561339757613396613570565b5b828201905092915050565b60006133ad826134a6565b91506133b8836134a6565b9250826133c8576133c761359f565b5b828204905092915050565b60006133de826134a6565b91506133e9836134a6565b9250817fffffffffffffffffffffffffffffffffffffffffffffffffffffffffffffffff048311821515161561342257613421613570565b5b828202905092915050565b6000613438826134a6565b9150613443836134a6565b92508282101561345657613455613570565b5b828203905092915050565b600061346c82613486565b9050919050565b6000819050613481826139bc565b919050565b600073ffffffffffffffffffffffffffffffffffffffff82169050919050565b6000819050919050565b60006134bb82613473565b9050919050565b60005b838110156134e05780820151818401526020810190506134c5565b838111156134ef576000848401525b50505050565b6000600282049050600182168061350d57607f821691505b60208210811415613521576135206135fd565b5b50919050565b6000613532826134a6565b91507fffffffffffffffffffffffffffffffffffffffffffffffffffffffffffffffff82141561356557613564613570565b5b600182019050919050565b7f4e487b7100000000000000000000000000000000000000000000000000000000600052601160045260246000fd5b7f4e487b7100000000000000000000000000000000000000000000000000000000600052601260045260246000fd5b7f4e487b7100000000000000000000000000000000000000000000000000000000600052602160045260246000fd5b7f4e487b7100000000000000000000000000000000000000000000000000000000600052602260045260246000fd5b7f4e487b7100000000000000000000000000000000000000000000000000000000600052603260045260246000fd5b7f4e487b7100000000000000000000000000000000000000000000000000000000600052604160045260246000fd5b600080fd5b600080fd5b600080fd5b600080fd5b600080fd5b6000601f19601f8301169050919050565b7f4f6e6c7920746865206f776e65722063616e2063616c6c20746869732066756e60008201527f6374696f6e000000000000000000000000000000000000000000000000000000602082015250565b7f43617220646f6573206e6f742065786973740000000000000000000000000000600082015250565b7f436172207769746820676976656e20696420646f6573206e6f74206578697374600082015250565b7f5472616e73666572206661696c65640000000000000000000000000000000000600082015250565b7f557365722068617320616e206f75747374616e64696e67206465627421000000600082015250565b7f436172207769746820676976656e20494420646f6573206e6f74206578697374600082015250565b7f436172206973206e6f7420417661696c61626c6520666f722075736500000000600082015250565b7f5573657220686173206e6f206465627420746f20706179000000000000000000600082015250565b7f557365722068617320616c72656164792072656e746564206120636172000000600082015250565b7f496e73756666696369656e742062616c616e636520746f207769746864726177600082015250565b7f5573657220616c72656164792065786973747300000000000000000000000000600082015250565b7f496e73756666696369656e7420636f6e74726163742062616c616e636520746f60008201527f2077697468647261770000000000000000000000000000000000000000000000602082015250565b7f557365722068617320696e73756666696369656e742062616c616e6365000000600082015250565b7f5573657220646f6573206e6f7420657869737421000000000000000000000000600082015250565b7f5573657220646f6573206e6f7420657869737400000000000000000000000000600082015250565b50565b7f5265656e7472616e637947756172643a207265656e7472616e742063616c6c00600082015250565b7f5573657220686173206e6f742072656e74656420612063617200000000000000600082015250565b600381106139cd576139cc6135ce565b5b50565b6139d981613461565b81146139e457600080fd5b50565b600381106139f457600080fd5b50565b613a00816134a6565b8114613a0b57600080fd5b5056fea264697066735822122094b3104b6d190b483ef4a502ab04cb1c529783a2a55ac31dc0f0d1155291acf364736f6c63430008070033",
  "immutableReferences": {},
  "source": "// SPDX-License-Identifier: MIT\npragma solidity ^0.8.7;\n\nimport \"@openzeppelin/contracts/utils/Counters.sol\";\nimport \"@openzeppelin/contracts/security/ReentrancyGuard.sol\";\n\n\ncontract CarRentalPlatform is ReentrancyGuard {\n  //DATA\n\n  //Counter\n  using Counters for Counters.Counter;\n  Counters.Counter private _counter;\n\n  //Owner\n  address private owner;\n\n  //total Payments\n  uint private totalPayments;\n\n  //user struct\n  struct User {\n    address walletAddress;\n    string name;\n    string lastname;\n    uint rentedCarId;\n    uint balance;\n    uint debt;\n    uint start;   \n  }\n\n  //car struct\n  struct Car {\n    uint id;\n    string name;\n    string imgUrl;\n    Status status;\n    uint rentFee;\n    uint saleFee;\n  }\n\n  //enum to indicate the status of the car\n  enum Status {\n    Retired,\n    InUse,\n    Available\n  }\n\n  //events\n  event CarAdded(uint indexed id, string name, string imgUrl, uint rentFee, uint saleFee);\n  event CarMetadataEdited(uint indexed id, string name, string imgUrl, uint rentFee, uint saleFee);\n  event CarStatusEdited(uint indexed id, Status status);\n  event UserAdded(address indexed walletAddress, string name, string lastname);\n  event Deposit(address indexed walletAddress, uint amount);\n  event CheckOut(address indexed walletAddress, uint indexed carId);\n  event CheckIn(address indexed walletAddress, uint indexed carId);\n  event PaymentMade(address indexed walletAddress, uint amount);\n  event BalanceWithdrawn(address indexed walletAddress, uint amount);\n\n  //user mapping\n  mapping(address => User) private users;\n  \n  //car mapping\n  mapping(uint => Car) private cars;\n  \n  //constructor\n  constructor() {\n    owner = msg.sender;\n    totalPayments = 0;\n  }\n\n  //MODIFIERS\n  //onlyOwner\n  modifier onlyOwner(){\n    require(msg.sender == owner, \"Only the owner can call this function\");\n    _;\n  }\n\n  //FUNCTIONS\n  //Execute Functions\n\n  //setOwner #onlyOwner\n  function setOwner(address _newOwner) external onlyOwner {\n    owner = _newOwner;\n  }\n\n  //addUser #nonExisting\n  function addUser(string calldata name, string calldata lastname) external {\n    require(!isUser(msg.sender), \"User already exists\");\n    users[msg.sender] = User(msg.sender, name, lastname, 0, 0, 0, 0);\n\n    emit UserAdded(msg.sender, users[msg.sender].name, users[msg.sender].lastname);\n  }\n\n  //addCar #onlyOwner #nonExistingCar\n  function addCar(string calldata name, string calldata url, uint rent, uint sale) external onlyOwner {\n    _counter.increment();\n    uint counter = _counter.current();\n    cars[counter] = Car(counter, name, url, Status.Available, rent, sale);\n\n    emit CarAdded(counter, cars[counter].name, cars[counter].imgUrl, cars[counter].rentFee, cars[counter].saleFee);\n  }\n\n  //editCarMetadata #onlyOwner #existingCar\n  function editCarMetadata(uint id, string calldata name, string calldata imgUrl, uint rentFee, uint saleFee) external onlyOwner {\n    require(cars[id].id != 0, \"Car with given ID does not exist\");\n    Car storage car = cars[id];\n    if(bytes(name).length != 0){\n      car.name = name;\n    }\n    if(bytes(imgUrl).length != 0){\n      car.imgUrl = imgUrl;\n    }\n    if(rentFee > 0) {\n      car.rentFee = rentFee;\n    }\n    if(saleFee > 0) {\n      car.saleFee = saleFee;\n    }\n\n    emit CarMetadataEdited(id, car.name, car.imgUrl, car.rentFee, car.saleFee);\n  }\n\n  //editCarStatus #onlyOwner #existingCar\n  function editCarStatus(uint id, Status status) external onlyOwner {\n    require(cars[id].id != 0, \"Car with given id does not exist\");\n    cars[id].status = status;\n\n    emit CarStatusEdited(id, status);\n  }\n\n  //checkOut #existingUser #isCarAvailable #userHasNotRentedACar #userHasNoDebt\n  function checkOut(uint id) external {\n    require(isUser(msg.sender), \"User does not exist!\");\n    require(cars[id].status == Status.Available, \"Car is not Available for use\");\n    require(users[msg.sender].rentedCarId == 0, \"User has already rented a car\");\n    require(users[msg.sender].debt == 0, \"User has an outstanding debt!\");\n\n    users[msg.sender].start = block.timestamp;\n    users[msg.sender].rentedCarId = id;\n    cars[id].status = Status.InUse;\n\n    emit CheckOut(msg.sender, id);\n  }\n\n  //checkln #existingUser #userHasRentedACar\n  function checkIn() external {\n    require(isUser(msg.sender), \"User does not exist!\");\n    uint rentedCarId = users[msg.sender].rentedCarId;\n    require(rentedCarId != 0, \"User has not rented a car\");\n\n    uint usedSeconds = block.timestamp - users[msg.sender].start;\n    uint rentFee = cars[rentedCarId].rentFee;\n    users[msg.sender].debt += calculateDebt(usedSeconds, rentFee);\n\n    users[msg.sender].rentedCarId = 0;\n    users[msg.sender].start = 0;\n    cars[rentedCarId].status = Status.Available;\n\n    emit CheckIn(msg.sender, rentedCarId);\n  }\n\n  //deposit #existingUser\n  function deposit() external payable {\n    require(isUser(msg.sender), \"User does not exist\");\n    users[msg.sender].balance += msg.value;\n\n    emit Deposit(msg.sender, msg.value);\n  }\n\n  //makePayment #existingUser #existingDebt #sufficientBalance\n  function makePayment() external {\n    require(isUser(msg.sender), \"User does not exist\");\n    uint debt = users[msg.sender].debt;\n    uint balance = users[msg.sender].balance;\n\n    require(debt > 0, \"User has no debt to pay\");\n    require(balance >= debt, \"User has insufficient balance\");\n\n    unchecked {\n      users[msg.sender].balance -= debt;\n    }\n    totalPayments += debt;\n    users[msg.sender].debt = 0;\n\n    emit PaymentMade(msg.sender, debt);\n  }\n\n  //withdrawBalance #existingUser\n  function withdrawBalance(uint amount) external nonReentrant {\n    require(isUser(msg.sender), \"User does not exist\");\n    uint balance = users[msg.sender].balance;\n    require(balance >= amount, \"Insufficient balance to withdraw\");\n\n    unchecked {\n      users[msg.sender].balance -= amount;\n\n    }\n    \n    (bool success, ) = msg.sender.call{value: amount}(\"\");\n    require (success, \"Transfer failed\");\n\n    emit BalanceWithdrawn(msg.sender, amount);\n  }\n\n  //withdrawOwnerBalance #onlyOwner\n  function withdrawOwnerBalance(uint amount) external onlyOwner {\n    require(totalPayments >= amount, \"Insufficient contract balance to withdraw\");\n\n    (bool success, ) = owner.call{value: amount}(\"\");\n    require(success, \"Transfer failed\");\n\n    unchecked {\n      totalPayments -= amount;\n    }\n  }\n\n\n  //Query Functions\n\n  //getOwner\n  function getOwner() external view returns(address) {\n    return owner;\n  }\n\n  //isUser\n  function isUser(address walletAddress) private view returns(bool) {\n    return users[walletAddress].walletAddress != address(0);\n  }\n    \n  //getUser #existingUser\n  function getUser(address walletAddress) external view returns(User memory) {\n    require(isUser(walletAddress), \"User does not exist\");\n    return users[walletAddress];\n  }\n\n  //getCar #existingCar\n  function getCar(uint id) external view returns(Car memory) {\n    require(cars[id].id != 0, \"Car does not exist\");\n    return cars[id];\n  }\n\n  //getCarByStatus\n  function getCarsByStatus(Status _status) external view returns(Car[] memory) {\n    uint count = 0;\n    uint length = _counter.current();\n    for(uint i = 1; i <= length; i++) {\n      if (cars[i].status == _status) {\n        count++;\n      }\n    }\n    Car[] memory carsWithStatus = new Car[](count);\n    count = 0;\n    for(uint i = 1; i <= length; i++) {\n      if(cars[i].status == _status) {\n        carsWithStatus[count] = cars[i];\n        count++;\n      }\n    }\n\n    return carsWithStatus;\n  }\n\n  //calculateDebt\n  function calculateDebt(uint usedSeconds, uint rentFee) private pure returns(uint) {\n    uint usedMinutes = usedSeconds / 60;\n    return usedMinutes * rentFee;\n  }\n\n  //getCurrentCount\n  function getCurrentCount() external view returns(uint) {\n    return _counter.current();\n  }\n\n  //getContractBalance #onlyOwner\n  function getContractBalance() external view onlyOwner returns(uint) {\n    return address(this).balance;\n  }\n\n  //getTotalPayments #onlyOwner\n  function getTotalPayments() external view onlyOwner returns(uint) {\n    return totalPayments;\n  }\n}\n",
  "sourcePath": "D:\\003 Courses\\Patikadev\\BNB Chain with Hardhat\\contracts\\bsc\\CarRentalPlatform.sol",
  "compiler": {
    "name": "solc",
    "version": "0.8.7+commit.e28d00a7.Emscripten.clang"
  },
  "schemaVersion": "3.4.14",
  "updatedAt": "2023-06-17T17:02:05.933Z",
  "networkType": "ethereum",
  "devdoc": {
    "kind": "dev",
    "methods": {},
    "version": 1
  },
  "userdoc": {
    "kind": "user",
    "methods": {},
    "version": 1
  },
  "db": {
    "callBytecode": {
      "id": "0xfa74da73c8e05ff4a2147e9a3c605a3b0378020073b7f9b959fafa4e0dfa0dd0"
    },
    "createBytecode": {
      "id": "0x7287eba8e2bb6872558cadf0f818017db3eff0fefdb4fadf33cdcae9d8df01bb"
    },
    "contract": {
      "id": "0x7115982693df3e0dbbbb7467f221f9c79df305fc15c11762fe38cc198c4dbd88"
    }
  }
}